{
  "contractName": "MyPrize",
  "abi": [
    {
      "constant": false,
      "inputs": [
        {
          "name": "prizeId",
          "type": "uint256"
        },
        {
          "name": "geohash",
          "type": "bytes10"
        },
        {
          "name": "_metadata",
          "type": "string"
        }
      ],
      "name": "placePrize",
      "outputs": [],
      "payable": false,
      "stateMutability": "nonpayable",
      "type": "function"
    },
    {
      "constant": false,
      "inputs": [
        {
          "name": "prizeId",
          "type": "uint256"
        },
        {
          "name": "geohash",
          "type": "bytes10"
        }
      ],
      "name": "claimPrize",
      "outputs": [],
      "payable": false,
      "stateMutability": "nonpayable",
      "type": "function"
    },
    {
      "constant": true,
      "inputs": [
        {
          "name": "",
          "type": "uint256"
        }
      ],
      "name": "prizes",
      "outputs": [
        {
          "name": "id",
          "type": "uint256"
        },
        {
          "name": "owner",
          "type": "address"
        },
        {
          "name": "geohash",
          "type": "bytes10"
        },
        {
          "name": "metadata",
          "type": "string"
        },
        {
          "name": "placedAt",
          "type": "uint256"
        }
      ],
      "payable": false,
      "stateMutability": "view",
      "type": "function"
    },
    {
      "inputs": [],
      "payable": false,
      "stateMutability": "nonpayable",
      "type": "constructor"
    }
  ],
  "bytecode": "0x6060604052341561000f57600080fd5b6000610019610176565b600191505b600a8211151561016f5760a0604051908101604052808381526020013373ffffffffffffffffffffffffffffffffffffffff168152602001600075ffffffffffffffffffffffffffffffffffffffffffff191681526020016020604051908101604052806000815250815260200160008152509050806000808481526020019081526020016000206000820151816000015560208201518160010160006101000a81548173ffffffffffffffffffffffffffffffffffffffff021916908373ffffffffffffffffffffffffffffffffffffffff16021790555060408201518160010160146101000a81548169ffffffffffffffffffff02191690837601000000000000000000000000000000000000000000009004021790555060608201518160020190805190602001906101549291906101db565b5060808201518160030155905050818060010192505061001e565b5050610294565b60a06040519081016040528060008152602001600073ffffffffffffffffffffffffffffffffffffffff168152602001600075ffffffffffffffffffffffffffffffffffffffffffff191681526020016101ce61025b565b8152602001600081525090565b828054600181600116156101000203166002900490600052602060002090601f016020900481019282601f1061021c57805160ff191683800117855561024a565b8280016001018555821561024a579182015b8281111561024957825182559160200191906001019061022e565b5b509050610257919061026f565b5090565b602060405190810160405280600081525090565b61029191905b8082111561028d576000816000905550600101610275565b5090565b90565b610712806102a36000396000f300606060405260043610610057576000357c0100000000000000000000000000000000000000000000000000000000900463ffffffff168063895c21d11461005c578063b6a44fd2146100e4578063eccb3a4f14610129575b600080fd5b341561006757600080fd5b6100e2600480803590602001909190803575ffffffffffffffffffffffffffffffffffffffffffff191690602001909190803590602001908201803590602001908080601f0160208091040260200160405190810160405280939291908181526020018383808284378201915050505050509190505061025c565b005b34156100ef57600080fd5b610127600480803590602001909190803575ffffffffffffffffffffffffffffffffffffffffffff191690602001909190505061042a565b005b341561013457600080fd5b61014a60048080359060200190919050506105c9565b604051808681526020018573ffffffffffffffffffffffffffffffffffffffff1673ffffffffffffffffffffffffffffffffffffffff1681526020018475ffffffffffffffffffffffffffffffffffffffffffff191675ffffffffffffffffffffffffffffffffffffffffffff19168152602001806020018381526020018281038252848181546001816001161561010002031660029004815260200191508054600181600116156101000203166002900480156102495780601f1061021e57610100808354040283529160200191610249565b820191906000526020600020905b81548152906001019060200180831161022c57829003601f168201915b5050965050505050505060405180910390f35b60008060008581526020019081526020016000209050600081600001541415151561028657600080fd5b600075ffffffffffffffffffffffffffffffffffffffffffff19168375ffffffffffffffffffffffffffffffffffffffffffff1916141515156102c857600080fd5b600073ffffffffffffffffffffffffffffffffffffffff168160010160009054906101000a900473ffffffffffffffffffffffffffffffffffffffff1673ffffffffffffffffffffffffffffffffffffffff16148061037657508060010160009054906101000a900473ffffffffffffffffffffffffffffffffffffffff1673ffffffffffffffffffffffffffffffffffffffff163373ffffffffffffffffffffffffffffffffffffffff16145b151561038157600080fd5b60008160010160006101000a81548173ffffffffffffffffffffffffffffffffffffffff021916908373ffffffffffffffffffffffffffffffffffffffff160217905550828160010160146101000a81548169ffffffffffffffffffff0219169083760100000000000000000000000000000000000000000000900402179055508181600201908051906020019061041a929190610641565b5043816003018190555050505050565b60008060008481526020019081526020016000209050600081600001541415151561045457600080fd5b600075ffffffffffffffffffffffffffffffffffffffffffff19168275ffffffffffffffffffffffffffffffffffffffffffff1916141580156104ef57508175ffffffffffffffffffffffffffffffffffffffffffff19168160010160149054906101000a90047601000000000000000000000000000000000000000000000275ffffffffffffffffffffffffffffffffffffffffffff1916145b15156104fa57600080fd5b6103e88160030154430311151561051057600080fd5b338160010160006101000a81548173ffffffffffffffffffffffffffffffffffffffff021916908373ffffffffffffffffffffffffffffffffffffffff16021790555060008160010160146101000a81548169ffffffffffffffffffff02191690837601000000000000000000000000000000000000000000009004021790555060206040519081016040528060008152508160020190805190602001906105b9929190610641565b5060008160030181905550505050565b60006020528060005260406000206000915090508060000154908060010160009054906101000a900473ffffffffffffffffffffffffffffffffffffffff16908060010160149054906101000a9004760100000000000000000000000000000000000000000000029080600201908060030154905085565b828054600181600116156101000203166002900490600052602060002090601f016020900481019282601f1061068257805160ff19168380011785556106b0565b828001600101855582156106b0579182015b828111156106af578251825591602001919060010190610694565b5b5090506106bd91906106c1565b5090565b6106e391905b808211156106df5760008160009055506001016106c7565b5090565b905600a165627a7a7230582008691df265fb0adbba5b333dad96f6a6b02da45410d462771c45d67b290aaf840029",
  "source": "pragma solidity ^0.4.18;\ncontract MyPrize { struct Prize {\nuint id;\naddress owner; bytes10 geohash; string metadata; uint placedAt;\n// current owner\n// current unclaimed location\n// probably a URL pointing to the full metadata // block count when it was placed\n}\nmapping (uint => Prize) public prizes;\n// Constructor\nfunction MyPrize() public {\nfor (uint i=1; i <= 10; i++) {\nPrize memory prize = Prize({id: i, owner: msg.sender, geohash: \"\",\nmetadata: \"\", placedAt: 0}); prizes[i] = prize;\n} }\nfunction placePrize (uint prizeId, bytes10 geohash, string _metadata) public {\nvar prize = prizes[prizeId];\nrequire (prize.id != 0);\nrequire (geohash != bytes10(\"\"));\nrequire (prize.owner == address(0) || msg.sender == prize.owner); prize.owner = address(0);\nprize.geohash = geohash; prize.metadata = _metadata; prize.placedAt = block.number;\n}\nfunction claimPrize (uint prizeId, bytes10 geohash) public {\nvar prize = prizes[prizeId];\nrequire (prize.id != 0);\nrequire (geohash != bytes10(\"\") && prize.geohash == geohash); require (block.number - prize.placedAt > 1000);\nprize.owner = msg.sender; prize.geohash = \"\"; prize.metadata = \"\";\nprize.placedAt = 0; }\n}",
  "sourcePath": "/Users/Masaki/webthereum/truffle/contracts/MyPrize.sol",
  "compiler": {
    "name": "solc",
    "version": "0.4.18+commit.9cf6e910.Emscripten.clang"
  },
  "schemaVersion": "1.0.1",
  "updatedAt": "2018-01-22T17:54:30.997Z"
}